{
  "_format": "hh-sol-artifact-1",
  "contractName": "Forwarder",
  "sourceName": "contracts/Forwarder.sol",
  "abi": [
    {
      "inputs": [
        {
          "components": [
            {
              "internalType": "address",
              "name": "from",
              "type": "address"
            },
            {
              "internalType": "address",
              "name": "to",
              "type": "address"
            },
            {
              "internalType": "uint256",
              "name": "value",
              "type": "uint256"
            },
            {
              "internalType": "uint256",
              "name": "gas",
              "type": "uint256"
            },
            {
              "internalType": "uint256",
              "name": "nonce",
              "type": "uint256"
            },
            {
              "internalType": "bytes",
              "name": "data",
              "type": "bytes"
            }
          ],
          "internalType": "struct MinimalForwarder.ForwardRequest[]",
          "name": "requests",
          "type": "tuple[]"
        },
        {
          "internalType": "bytes[]",
          "name": "signatures",
          "type": "bytes[]"
        }
      ],
      "name": "batchExecute",
      "outputs": [],
      "stateMutability": "nonpayable",
      "type": "function"
    },
    {
      "inputs": [
        {
          "components": [
            {
              "internalType": "address",
              "name": "from",
              "type": "address"
            },
            {
              "internalType": "address",
              "name": "to",
              "type": "address"
            },
            {
              "internalType": "uint256",
              "name": "value",
              "type": "uint256"
            },
            {
              "internalType": "uint256",
              "name": "gas",
              "type": "uint256"
            },
            {
              "internalType": "uint256",
              "name": "nonce",
              "type": "uint256"
            },
            {
              "internalType": "bytes",
              "name": "data",
              "type": "bytes"
            }
          ],
          "internalType": "struct MinimalForwarder.ForwardRequest",
          "name": "req",
          "type": "tuple"
        },
        {
          "internalType": "bytes",
          "name": "signature",
          "type": "bytes"
        }
      ],
      "name": "execute",
      "outputs": [
        {
          "internalType": "bool",
          "name": "",
          "type": "bool"
        },
        {
          "internalType": "bytes",
          "name": "",
          "type": "bytes"
        }
      ],
      "stateMutability": "payable",
      "type": "function"
    },
    {
      "inputs": [
        {
          "internalType": "address",
          "name": "from",
          "type": "address"
        }
      ],
      "name": "getNonce",
      "outputs": [
        {
          "internalType": "uint256",
          "name": "",
          "type": "uint256"
        }
      ],
      "stateMutability": "view",
      "type": "function"
    },
    {
      "inputs": [
        {
          "components": [
            {
              "internalType": "address",
              "name": "from",
              "type": "address"
            },
            {
              "internalType": "address",
              "name": "to",
              "type": "address"
            },
            {
              "internalType": "uint256",
              "name": "value",
              "type": "uint256"
            },
            {
              "internalType": "uint256",
              "name": "gas",
              "type": "uint256"
            },
            {
              "internalType": "uint256",
              "name": "nonce",
              "type": "uint256"
            },
            {
              "internalType": "bytes",
              "name": "data",
              "type": "bytes"
            }
          ],
          "internalType": "struct MinimalForwarder.ForwardRequest",
          "name": "req",
          "type": "tuple"
        },
        {
          "internalType": "bytes",
          "name": "signature",
          "type": "bytes"
        }
      ],
      "name": "verify",
      "outputs": [
        {
          "internalType": "bool",
          "name": "",
          "type": "bool"
        }
      ],
      "stateMutability": "view",
      "type": "function"
    }
  ],
  "bytecode": "0x6101406040523480156200001257600080fd5b506040518060400160405280601081526020017f4d696e696d616c466f72776172646572000000000000000000000000000000008152506040518060400160405280600581526020017f302e302e3100000000000000000000000000000000000000000000000000000081525060008280519060200120905060008280519060200120905060007f8b73c3c69bb8fe3d512ecc4cf759cc79239f7b179b0ffacaa9a75d522b39400f90508260e081815250508161010081815250504660a08181525050620000e88184846200013760201b60201c565b608081815250503073ffffffffffffffffffffffffffffffffffffffff1660c08173ffffffffffffffffffffffffffffffffffffffff168152505080610120818152505050505050506200024b565b6000838383463060405160200162000154959493929190620001ee565b6040516020818303038152906040528051906020012090509392505050565b6000819050919050565b620001888162000173565b82525050565b6000819050919050565b620001a3816200018e565b82525050565b600073ffffffffffffffffffffffffffffffffffffffff82169050919050565b6000620001d682620001a9565b9050919050565b620001e881620001c9565b82525050565b600060a0820190506200020560008301886200017d565b6200021460208301876200017d565b6200022360408301866200017d565b62000232606083018562000198565b620002416080830184620001dd565b9695505050505050565b60805160a05160c05160e05161010051610120516114e06200029b600039600061062b0152600061066d0152600061064c01526000610581015260006105d70152600061060001526114e06000f3fe60806040526004361061003f5760003560e01c80632d0335ab146100445780633fbb8ad91461008157806347153f82146100aa578063bf5d3bdb146100db575b600080fd5b34801561005057600080fd5b5061006b60048036038101906100669190610a05565b610118565b6040516100789190610a4b565b60405180910390f35b34801561008d57600080fd5b506100a860048036038101906100a39190610b21565b610160565b005b6100c460048036038101906100bf9190610c1c565b6101dc565b6040516100d2929190610d43565b60405180910390f35b3480156100e757600080fd5b5061010260048036038101906100fd9190610c1c565b610387565b60405161010f9190610d73565b60405180910390f35b60008060008373ffffffffffffffffffffffffffffffffffffffff1673ffffffffffffffffffffffffffffffffffffffff168152602001908152602001600020549050919050565b60005b848490508110156101d5576101c085858381811061018457610183610d8e565b5b90506020028101906101969190610dcc565b8484848181106101a9576101a8610d8e565b5b90506020028101906101bb9190610df4565b6101dc565b505080806101cd90610e86565b915050610163565b5050505050565b600060606101eb858585610387565b61022a576040517f08c379a000000000000000000000000000000000000000000000000000000000815260040161022190610f51565b60405180910390fd5b6001856080013561023b9190610f71565b6000808760000160208101906102519190610a05565b73ffffffffffffffffffffffffffffffffffffffff1673ffffffffffffffffffffffffffffffffffffffff168152602001908152602001600020819055506000808660200160208101906102a59190610a05565b73ffffffffffffffffffffffffffffffffffffffff1687606001358860400135898060a001906102d59190610df4565b8b60000160208101906102e89190610a05565b6040516020016102fa9392919061102c565b6040516020818303038152906040526040516103169190611087565b600060405180830381858888f193505050503d8060008114610354576040519150601f19603f3d011682016040523d82523d6000602084013e610359565b606091505b5091509150603f876060013561036f91906110cd565b5a1161037757fe5b8181935093505050935093915050565b60008061049084848080601f016020809104026020016040519081016040528093929190818152602001838380828437600081840152601f19601f820116905080830192505050505050506104827fdd8f4b70b0f4393e889bd39128a30628a78b61816a9eb8199759e7a349657e488860000160208101906104099190610a05565b89602001602081019061041c9190610a05565b8a604001358b606001358c608001358d8060a0019061043b9190610df4565b6040516104499291906110fe565b6040518091039020604051602001610467979695949392919061113f565b6040516020818303038152906040528051906020012061053c565b61055690919063ffffffff16565b905084608001356000808760000160208101906104ad9190610a05565b73ffffffffffffffffffffffffffffffffffffffff1673ffffffffffffffffffffffffffffffffffffffff1681526020019081526020016000205414801561053257508460000160208101906105039190610a05565b73ffffffffffffffffffffffffffffffffffffffff168173ffffffffffffffffffffffffffffffffffffffff16145b9150509392505050565b600061054f61054961057d565b83610697565b9050919050565b600080600061056585856106ca565b915091506105728161071b565b819250505092915050565b60007f000000000000000000000000000000000000000000000000000000000000000073ffffffffffffffffffffffffffffffffffffffff163073ffffffffffffffffffffffffffffffffffffffff161480156105f957507f000000000000000000000000000000000000000000000000000000000000000046145b15610626577f00000000000000000000000000000000000000000000000000000000000000009050610694565b6106917f00000000000000000000000000000000000000000000000000000000000000007f00000000000000000000000000000000000000000000000000000000000000007f0000000000000000000000000000000000000000000000000000000000000000610881565b90505b90565b600082826040516020016106ac929190611226565b60405160208183030381529060405280519060200120905092915050565b600080604183510361070b5760008060006020860151925060408601519150606086015160001a90506106ff878285856108bb565b94509450505050610714565b60006002915091505b9250929050565b6000600481111561072f5761072e61125d565b5b8160048111156107425761074161125d565b5b031561087e576001600481111561075c5761075b61125d565b5b81600481111561076f5761076e61125d565b5b036107af576040517f08c379a00000000000000000000000000000000000000000000000000000000081526004016107a6906112d8565b60405180910390fd5b600260048111156107c3576107c261125d565b5b8160048111156107d6576107d561125d565b5b03610816576040517f08c379a000000000000000000000000000000000000000000000000000000000815260040161080d90611344565b60405180910390fd5b6003600481111561082a5761082961125d565b5b81600481111561083d5761083c61125d565b5b0361087d576040517f08c379a0000000000000000000000000000000000000000000000000000000008152600401610874906113d6565b60405180910390fd5b5b50565b6000838383463060405160200161089c9594939291906113f6565b6040516020818303038152906040528051906020012090509392505050565b6000807f7fffffffffffffffffffffffffffffff5d576e7357a4501ddfe92f46681b20a08360001c11156108f6576000600391509150610994565b60006001878787876040516000815260200160405260405161091b9493929190611465565b6020604051602081039080840390855afa15801561093d573d6000803e3d6000fd5b505050602060405103519050600073ffffffffffffffffffffffffffffffffffffffff168173ffffffffffffffffffffffffffffffffffffffff160361098b57600060019250925050610994565b80600092509250505b94509492505050565b600080fd5b600080fd5b600073ffffffffffffffffffffffffffffffffffffffff82169050919050565b60006109d2826109a7565b9050919050565b6109e2816109c7565b81146109ed57600080fd5b50565b6000813590506109ff816109d9565b92915050565b600060208284031215610a1b57610a1a61099d565b5b6000610a29848285016109f0565b91505092915050565b6000819050919050565b610a4581610a32565b82525050565b6000602082019050610a606000830184610a3c565b92915050565b600080fd5b600080fd5b600080fd5b60008083601f840112610a8b57610a8a610a66565b5b8235905067ffffffffffffffff811115610aa857610aa7610a6b565b5b602083019150836020820283011115610ac457610ac3610a70565b5b9250929050565b60008083601f840112610ae157610ae0610a66565b5b8235905067ffffffffffffffff811115610afe57610afd610a6b565b5b602083019150836020820283011115610b1a57610b19610a70565b5b9250929050565b60008060008060408587031215610b3b57610b3a61099d565b5b600085013567ffffffffffffffff811115610b5957610b586109a2565b5b610b6587828801610a75565b9450945050602085013567ffffffffffffffff811115610b8857610b876109a2565b5b610b9487828801610acb565b925092505092959194509250565b600080fd5b600060c08284031215610bbd57610bbc610ba2565b5b81905092915050565b60008083601f840112610bdc57610bdb610a66565b5b8235905067ffffffffffffffff811115610bf957610bf8610a6b565b5b602083019150836001820283011115610c1557610c14610a70565b5b9250929050565b600080600060408486031215610c3557610c3461099d565b5b600084013567ffffffffffffffff811115610c5357610c526109a2565b5b610c5f86828701610ba7565b935050602084013567ffffffffffffffff811115610c8057610c7f6109a2565b5b610c8c86828701610bc6565b92509250509250925092565b60008115159050919050565b610cad81610c98565b82525050565b600081519050919050565b600082825260208201905092915050565b60005b83811015610ced578082015181840152602081019050610cd2565b60008484015250505050565b6000601f19601f8301169050919050565b6000610d1582610cb3565b610d1f8185610cbe565b9350610d2f818560208601610ccf565b610d3881610cf9565b840191505092915050565b6000604082019050610d586000830185610ca4565b8181036020830152610d6a8184610d0a565b90509392505050565b6000602082019050610d886000830184610ca4565b92915050565b7f4e487b7100000000000000000000000000000000000000000000000000000000600052603260045260246000fd5b600080fd5b600080fd5b600080fd5b60008235600160c003833603038112610de857610de7610dbd565b5b80830191505092915050565b60008083356001602003843603038112610e1157610e10610dbd565b5b80840192508235915067ffffffffffffffff821115610e3357610e32610dc2565b5b602083019250600182023603831315610e4f57610e4e610dc7565b5b509250929050565b7f4e487b7100000000000000000000000000000000000000000000000000000000600052601160045260246000fd5b6000610e9182610a32565b91507fffffffffffffffffffffffffffffffffffffffffffffffffffffffffffffffff8203610ec357610ec2610e57565b5b600182019050919050565b600082825260208201905092915050565b7f4d696e696d616c466f727761726465723a207369676e617475726520646f657360008201527f206e6f74206d6174636820726571756573740000000000000000000000000000602082015250565b6000610f3b603283610ece565b9150610f4682610edf565b604082019050919050565b60006020820190508181036000830152610f6a81610f2e565b9050919050565b6000610f7c82610a32565b9150610f8783610a32565b9250828201905080821115610f9f57610f9e610e57565b5b92915050565b600081905092915050565b82818337600083830152505050565b6000610fcb8385610fa5565b9350610fd8838584610fb0565b82840190509392505050565b60008160601b9050919050565b6000610ffc82610fe4565b9050919050565b600061100e82610ff1565b9050919050565b611026611021826109c7565b611003565b82525050565b6000611039828587610fbf565b91506110458284611015565b601482019150819050949350505050565b600061106182610cb3565b61106b8185610fa5565b935061107b818560208601610ccf565b80840191505092915050565b60006110938284611056565b915081905092915050565b7f4e487b7100000000000000000000000000000000000000000000000000000000600052601260045260246000fd5b60006110d882610a32565b91506110e383610a32565b9250826110f3576110f261109e565b5b828204905092915050565b600061110b828486610fbf565b91508190509392505050565b6000819050919050565b61112a81611117565b82525050565b611139816109c7565b82525050565b600060e082019050611154600083018a611121565b6111616020830189611130565b61116e6040830188611130565b61117b6060830187610a3c565b6111886080830186610a3c565b61119560a0830185610a3c565b6111a260c0830184611121565b98975050505050505050565b600081905092915050565b7f1901000000000000000000000000000000000000000000000000000000000000600082015250565b60006111ef6002836111ae565b91506111fa826111b9565b600282019050919050565b6000819050919050565b61122061121b82611117565b611205565b82525050565b6000611231826111e2565b915061123d828561120f565b60208201915061124d828461120f565b6020820191508190509392505050565b7f4e487b7100000000000000000000000000000000000000000000000000000000600052602160045260246000fd5b7f45434453413a20696e76616c6964207369676e61747572650000000000000000600082015250565b60006112c2601883610ece565b91506112cd8261128c565b602082019050919050565b600060208201905081810360008301526112f1816112b5565b9050919050565b7f45434453413a20696e76616c6964207369676e6174757265206c656e67746800600082015250565b600061132e601f83610ece565b9150611339826112f8565b602082019050919050565b6000602082019050818103600083015261135d81611321565b9050919050565b7f45434453413a20696e76616c6964207369676e6174757265202773272076616c60008201527f7565000000000000000000000000000000000000000000000000000000000000602082015250565b60006113c0602283610ece565b91506113cb82611364565b604082019050919050565b600060208201905081810360008301526113ef816113b3565b9050919050565b600060a08201905061140b6000830188611121565b6114186020830187611121565b6114256040830186611121565b6114326060830185610a3c565b61143f6080830184611130565b9695505050505050565b600060ff82169050919050565b61145f81611449565b82525050565b600060808201905061147a6000830187611121565b6114876020830186611456565b6114946040830185611121565b6114a16060830184611121565b9594505050505056fea264697066735822122070ea48ca25d7a223a962ae6e2e80589486b23cc419bbbdf5ef44b621b422316964736f6c63430008110033",
  "linkReferences": {},
  "deployedLinkReferences": {}
}