{
  "_format": "hh-sol-artifact-1",
  "contractName": "TargetToken",
  "sourceName": "contracts/TargetToken.sol",
  "abi": [
    {
      "inputs": [
        {
          "internalType": "uint256",
          "name": "initialSupply",
          "type": "uint256"
        },
        {
          "internalType": "contract MinimalForwarder",
          "name": "forwarder",
          "type": "address"
        }
      ],
      "stateMutability": "nonpayable",
      "type": "constructor"
    },
    {
      "anonymous": false,
      "inputs": [
        {
          "indexed": true,
          "internalType": "address",
          "name": "owner",
          "type": "address"
        },
        {
          "indexed": true,
          "internalType": "address",
          "name": "spender",
          "type": "address"
        },
        {
          "indexed": false,
          "internalType": "uint256",
          "name": "value",
          "type": "uint256"
        }
      ],
      "name": "Approval",
      "type": "event"
    },
    {
      "anonymous": false,
      "inputs": [
        {
          "indexed": true,
          "internalType": "address",
          "name": "from",
          "type": "address"
        },
        {
          "indexed": true,
          "internalType": "address",
          "name": "to",
          "type": "address"
        },
        {
          "indexed": false,
          "internalType": "uint256",
          "name": "value",
          "type": "uint256"
        }
      ],
      "name": "Transfer",
      "type": "event"
    },
    {
      "inputs": [
        {
          "internalType": "address",
          "name": "owner",
          "type": "address"
        },
        {
          "internalType": "address",
          "name": "spender",
          "type": "address"
        }
      ],
      "name": "allowance",
      "outputs": [
        {
          "internalType": "uint256",
          "name": "",
          "type": "uint256"
        }
      ],
      "stateMutability": "view",
      "type": "function"
    },
    {
      "inputs": [
        {
          "internalType": "address",
          "name": "spender",
          "type": "address"
        },
        {
          "internalType": "uint256",
          "name": "amount",
          "type": "uint256"
        }
      ],
      "name": "approve",
      "outputs": [
        {
          "internalType": "bool",
          "name": "",
          "type": "bool"
        }
      ],
      "stateMutability": "nonpayable",
      "type": "function"
    },
    {
      "inputs": [
        {
          "internalType": "address",
          "name": "account",
          "type": "address"
        }
      ],
      "name": "balanceOf",
      "outputs": [
        {
          "internalType": "uint256",
          "name": "",
          "type": "uint256"
        }
      ],
      "stateMutability": "view",
      "type": "function"
    },
    {
      "inputs": [],
      "name": "decimals",
      "outputs": [
        {
          "internalType": "uint8",
          "name": "",
          "type": "uint8"
        }
      ],
      "stateMutability": "view",
      "type": "function"
    },
    {
      "inputs": [
        {
          "internalType": "address",
          "name": "spender",
          "type": "address"
        },
        {
          "internalType": "uint256",
          "name": "subtractedValue",
          "type": "uint256"
        }
      ],
      "name": "decreaseAllowance",
      "outputs": [
        {
          "internalType": "bool",
          "name": "",
          "type": "bool"
        }
      ],
      "stateMutability": "nonpayable",
      "type": "function"
    },
    {
      "inputs": [
        {
          "internalType": "address",
          "name": "spender",
          "type": "address"
        },
        {
          "internalType": "uint256",
          "name": "addedValue",
          "type": "uint256"
        }
      ],
      "name": "increaseAllowance",
      "outputs": [
        {
          "internalType": "bool",
          "name": "",
          "type": "bool"
        }
      ],
      "stateMutability": "nonpayable",
      "type": "function"
    },
    {
      "inputs": [
        {
          "internalType": "address",
          "name": "forwarder",
          "type": "address"
        }
      ],
      "name": "isTrustedForwarder",
      "outputs": [
        {
          "internalType": "bool",
          "name": "",
          "type": "bool"
        }
      ],
      "stateMutability": "view",
      "type": "function"
    },
    {
      "inputs": [],
      "name": "name",
      "outputs": [
        {
          "internalType": "string",
          "name": "",
          "type": "string"
        }
      ],
      "stateMutability": "view",
      "type": "function"
    },
    {
      "inputs": [],
      "name": "symbol",
      "outputs": [
        {
          "internalType": "string",
          "name": "",
          "type": "string"
        }
      ],
      "stateMutability": "view",
      "type": "function"
    },
    {
      "inputs": [],
      "name": "totalSupply",
      "outputs": [
        {
          "internalType": "uint256",
          "name": "",
          "type": "uint256"
        }
      ],
      "stateMutability": "view",
      "type": "function"
    },
    {
      "inputs": [
        {
          "internalType": "address",
          "name": "to",
          "type": "address"
        },
        {
          "internalType": "uint256",
          "name": "amount",
          "type": "uint256"
        }
      ],
      "name": "transfer",
      "outputs": [
        {
          "internalType": "bool",
          "name": "",
          "type": "bool"
        }
      ],
      "stateMutability": "nonpayable",
      "type": "function"
    },
    {
      "inputs": [
        {
          "internalType": "address",
          "name": "from",
          "type": "address"
        },
        {
          "internalType": "address",
          "name": "to",
          "type": "address"
        },
        {
          "internalType": "uint256",
          "name": "amount",
          "type": "uint256"
        }
      ],
      "name": "transferFrom",
      "outputs": [
        {
          "internalType": "bool",
          "name": "",
          "type": "bool"
        }
      ],
      "stateMutability": "nonpayable",
      "type": "function"
    }
  ],
  "bytecode": "0x60a06040523480156200001157600080fd5b5060405162001b2138038062001b21833981810160405281019062000037919062000349565b6040518060400160405280600b81526020017f546172676574546f6b656e0000000000000000000000000000000000000000008152506040518060400160405280600381526020017f5447540000000000000000000000000000000000000000000000000000000000815250828073ffffffffffffffffffffffffffffffffffffffff1660808173ffffffffffffffffffffffffffffffffffffffff1681525050508160039081620000ea919062000600565b508060049081620000fc919062000600565b5050506200011133836200011960201b60201c565b505062000802565b600073ffffffffffffffffffffffffffffffffffffffff168273ffffffffffffffffffffffffffffffffffffffff16036200018b576040517f08c379a0000000000000000000000000000000000000000000000000000000008152600401620001829062000748565b60405180910390fd5b6200019f600083836200028660201b60201c565b8060026000828254620001b3919062000799565b92505081905550806000808473ffffffffffffffffffffffffffffffffffffffff1673ffffffffffffffffffffffffffffffffffffffff168152602001908152602001600020600082825401925050819055508173ffffffffffffffffffffffffffffffffffffffff16600073ffffffffffffffffffffffffffffffffffffffff167fddf252ad1be2c89b69c2b068fc378daa952ba7f163c4a11628f55a4df523b3ef83604051620002669190620007e5565b60405180910390a362000282600083836200028b60201b60201c565b5050565b505050565b505050565b600080fd5b6000819050919050565b620002aa8162000295565b8114620002b657600080fd5b50565b600081519050620002ca816200029f565b92915050565b600073ffffffffffffffffffffffffffffffffffffffff82169050919050565b6000620002fd82620002d0565b9050919050565b60006200031182620002f0565b9050919050565b620003238162000304565b81146200032f57600080fd5b50565b600081519050620003438162000318565b92915050565b6000806040838503121562000363576200036262000290565b5b60006200037385828601620002b9565b9250506020620003868582860162000332565b9150509250929050565b600081519050919050565b7f4e487b7100000000000000000000000000000000000000000000000000000000600052604160045260246000fd5b7f4e487b7100000000000000000000000000000000000000000000000000000000600052602260045260246000fd5b600060028204905060018216806200041257607f821691505b602082108103620004285762000427620003ca565b5b50919050565b60008190508160005260206000209050919050565b60006020601f8301049050919050565b600082821b905092915050565b600060088302620004927fffffffffffffffffffffffffffffffffffffffffffffffffffffffffffffffff8262000453565b6200049e868362000453565b95508019841693508086168417925050509392505050565b6000819050919050565b6000620004e1620004db620004d58462000295565b620004b6565b62000295565b9050919050565b6000819050919050565b620004fd83620004c0565b620005156200050c82620004e8565b84845462000460565b825550505050565b600090565b6200052c6200051d565b62000539818484620004f2565b505050565b5b8181101562000561576200055560008262000522565b6001810190506200053f565b5050565b601f821115620005b0576200057a816200042e565b620005858462000443565b8101602085101562000595578190505b620005ad620005a48562000443565b8301826200053e565b50505b505050565b600082821c905092915050565b6000620005d560001984600802620005b5565b1980831691505092915050565b6000620005f08383620005c2565b9150826002028217905092915050565b6200060b8262000390565b67ffffffffffffffff8111156200062757620006266200039b565b5b620006338254620003f9565b6200064082828562000565565b600060209050601f83116001811462000678576000841562000663578287015190505b6200066f8582620005e2565b865550620006df565b601f19841662000688866200042e565b60005b82811015620006b2578489015182556001820191506020850194506020810190506200068b565b86831015620006d25784890151620006ce601f891682620005c2565b8355505b6001600288020188555050505b505050505050565b600082825260208201905092915050565b7f45524332303a206d696e7420746f20746865207a65726f206164647265737300600082015250565b600062000730601f83620006e7565b91506200073d82620006f8565b602082019050919050565b60006020820190508181036000830152620007638162000721565b9050919050565b7f4e487b7100000000000000000000000000000000000000000000000000000000600052601160045260246000fd5b6000620007a68262000295565b9150620007b38362000295565b9250828201905080821115620007ce57620007cd6200076a565b5b92915050565b620007df8162000295565b82525050565b6000602082019050620007fc6000830184620007d4565b92915050565b6080516113036200081e60003960006103e301526113036000f3fe608060405234801561001057600080fd5b50600436106100b45760003560e01c8063572b6c0511610071578063572b6c05146101a357806370a08231146101d357806395d89b4114610203578063a457c2d714610221578063a9059cbb14610251578063dd62ed3e14610281576100b4565b806306fdde03146100b9578063095ea7b3146100d757806318160ddd1461010757806323b872dd14610125578063313ce567146101555780633950935114610173575b600080fd5b6100c16102b1565b6040516100ce9190610be0565b60405180910390f35b6100f160048036038101906100ec9190610c9b565b610343565b6040516100fe9190610cf6565b60405180910390f35b61010f610366565b60405161011c9190610d20565b60405180910390f35b61013f600480360381019061013a9190610d3b565b610370565b60405161014c9190610cf6565b60405180910390f35b61015d61039f565b60405161016a9190610daa565b60405180910390f35b61018d60048036038101906101889190610c9b565b6103a8565b60405161019a9190610cf6565b60405180910390f35b6101bd60048036038101906101b89190610dc5565b6103df565b6040516101ca9190610cf6565b60405180910390f35b6101ed60048036038101906101e89190610dc5565b610437565b6040516101fa9190610d20565b60405180910390f35b61020b61047f565b6040516102189190610be0565b60405180910390f35b61023b60048036038101906102369190610c9b565b610511565b6040516102489190610cf6565b60405180910390f35b61026b60048036038101906102669190610c9b565b610588565b6040516102789190610cf6565b60405180910390f35b61029b60048036038101906102969190610df2565b6105ab565b6040516102a89190610d20565b60405180910390f35b6060600380546102c090610e61565b80601f01602080910402602001604051908101604052809291908181526020018280546102ec90610e61565b80156103395780601f1061030e57610100808354040283529160200191610339565b820191906000526020600020905b81548152906001019060200180831161031c57829003601f168201915b5050505050905090565b60008061034e610632565b905061035b818585610641565b600191505092915050565b6000600254905090565b60008061037b610632565b905061038885828561080a565b610393858585610896565b60019150509392505050565b60006012905090565b6000806103b3610632565b90506103d48185856103c585896105ab565b6103cf9190610ec1565b610641565b600191505092915050565b60007f000000000000000000000000000000000000000000000000000000000000000073ffffffffffffffffffffffffffffffffffffffff168273ffffffffffffffffffffffffffffffffffffffff16149050919050565b60008060008373ffffffffffffffffffffffffffffffffffffffff1673ffffffffffffffffffffffffffffffffffffffff168152602001908152602001600020549050919050565b60606004805461048e90610e61565b80601f01602080910402602001604051908101604052809291908181526020018280546104ba90610e61565b80156105075780601f106104dc57610100808354040283529160200191610507565b820191906000526020600020905b8154815290600101906020018083116104ea57829003601f168201915b5050505050905090565b60008061051c610632565b9050600061052a82866105ab565b90508381101561056f576040517f08c379a000000000000000000000000000000000000000000000000000000000815260040161056690610f67565b60405180910390fd5b61057c8286868403610641565b60019250505092915050565b600080610593610632565b90506105a0818585610896565b600191505092915050565b6000600160008473ffffffffffffffffffffffffffffffffffffffff1673ffffffffffffffffffffffffffffffffffffffff16815260200190815260200160002060008373ffffffffffffffffffffffffffffffffffffffff1673ffffffffffffffffffffffffffffffffffffffff16815260200190815260200160002054905092915050565b600061063c610b0c565b905090565b600073ffffffffffffffffffffffffffffffffffffffff168373ffffffffffffffffffffffffffffffffffffffff16036106b0576040517f08c379a00000000000000000000000000000000000000000000000000000000081526004016106a790610ff9565b60405180910390fd5b600073ffffffffffffffffffffffffffffffffffffffff168273ffffffffffffffffffffffffffffffffffffffff160361071f576040517f08c379a00000000000000000000000000000000000000000000000000000000081526004016107169061108b565b60405180910390fd5b80600160008573ffffffffffffffffffffffffffffffffffffffff1673ffffffffffffffffffffffffffffffffffffffff16815260200190815260200160002060008473ffffffffffffffffffffffffffffffffffffffff1673ffffffffffffffffffffffffffffffffffffffff168152602001908152602001600020819055508173ffffffffffffffffffffffffffffffffffffffff168373ffffffffffffffffffffffffffffffffffffffff167f8c5be1e5ebec7d5bd14f71427d1e84f3dd0314c0f7b2291e5b200ac8c7c3b925836040516107fd9190610d20565b60405180910390a3505050565b600061081684846105ab565b90507fffffffffffffffffffffffffffffffffffffffffffffffffffffffffffffffff81146108905781811015610882576040517f08c379a0000000000000000000000000000000000000000000000000000000008152600401610879906110f7565b60405180910390fd5b61088f8484848403610641565b5b50505050565b600073ffffffffffffffffffffffffffffffffffffffff168373ffffffffffffffffffffffffffffffffffffffff1603610905576040517f08c379a00000000000000000000000000000000000000000000000000000000081526004016108fc90611189565b60405180910390fd5b600073ffffffffffffffffffffffffffffffffffffffff168273ffffffffffffffffffffffffffffffffffffffff1603610974576040517f08c379a000000000000000000000000000000000000000000000000000000000815260040161096b9061121b565b60405180910390fd5b61097f838383610b3e565b60008060008573ffffffffffffffffffffffffffffffffffffffff1673ffffffffffffffffffffffffffffffffffffffff16815260200190815260200160002054905081811015610a05576040517f08c379a00000000000000000000000000000000000000000000000000000000081526004016109fc906112ad565b60405180910390fd5b8181036000808673ffffffffffffffffffffffffffffffffffffffff1673ffffffffffffffffffffffffffffffffffffffff16815260200190815260200160002081905550816000808573ffffffffffffffffffffffffffffffffffffffff1673ffffffffffffffffffffffffffffffffffffffff168152602001908152602001600020600082825401925050819055508273ffffffffffffffffffffffffffffffffffffffff168473ffffffffffffffffffffffffffffffffffffffff167fddf252ad1be2c89b69c2b068fc378daa952ba7f163c4a11628f55a4df523b3ef84604051610af39190610d20565b60405180910390a3610b06848484610b43565b50505050565b6000610b17336103df565b15610b2b57601436033560601c9050610b3a565b610b33610b48565b9050610b3b565b5b90565b505050565b505050565b600033905090565b600081519050919050565b600082825260208201905092915050565b60005b83811015610b8a578082015181840152602081019050610b6f565b60008484015250505050565b6000601f19601f8301169050919050565b6000610bb282610b50565b610bbc8185610b5b565b9350610bcc818560208601610b6c565b610bd581610b96565b840191505092915050565b60006020820190508181036000830152610bfa8184610ba7565b905092915050565b600080fd5b600073ffffffffffffffffffffffffffffffffffffffff82169050919050565b6000610c3282610c07565b9050919050565b610c4281610c27565b8114610c4d57600080fd5b50565b600081359050610c5f81610c39565b92915050565b6000819050919050565b610c7881610c65565b8114610c8357600080fd5b50565b600081359050610c9581610c6f565b92915050565b60008060408385031215610cb257610cb1610c02565b5b6000610cc085828601610c50565b9250506020610cd185828601610c86565b9150509250929050565b60008115159050919050565b610cf081610cdb565b82525050565b6000602082019050610d0b6000830184610ce7565b92915050565b610d1a81610c65565b82525050565b6000602082019050610d356000830184610d11565b92915050565b600080600060608486031215610d5457610d53610c02565b5b6000610d6286828701610c50565b9350506020610d7386828701610c50565b9250506040610d8486828701610c86565b9150509250925092565b600060ff82169050919050565b610da481610d8e565b82525050565b6000602082019050610dbf6000830184610d9b565b92915050565b600060208284031215610ddb57610dda610c02565b5b6000610de984828501610c50565b91505092915050565b60008060408385031215610e0957610e08610c02565b5b6000610e1785828601610c50565b9250506020610e2885828601610c50565b9150509250929050565b7f4e487b7100000000000000000000000000000000000000000000000000000000600052602260045260246000fd5b60006002820490506001821680610e7957607f821691505b602082108103610e8c57610e8b610e32565b5b50919050565b7f4e487b7100000000000000000000000000000000000000000000000000000000600052601160045260246000fd5b6000610ecc82610c65565b9150610ed783610c65565b9250828201905080821115610eef57610eee610e92565b5b92915050565b7f45524332303a2064656372656173656420616c6c6f77616e63652062656c6f7760008201527f207a65726f000000000000000000000000000000000000000000000000000000602082015250565b6000610f51602583610b5b565b9150610f5c82610ef5565b604082019050919050565b60006020820190508181036000830152610f8081610f44565b9050919050565b7f45524332303a20617070726f76652066726f6d20746865207a65726f2061646460008201527f7265737300000000000000000000000000000000000000000000000000000000602082015250565b6000610fe3602483610b5b565b9150610fee82610f87565b604082019050919050565b6000602082019050818103600083015261101281610fd6565b9050919050565b7f45524332303a20617070726f766520746f20746865207a65726f20616464726560008201527f7373000000000000000000000000000000000000000000000000000000000000602082015250565b6000611075602283610b5b565b915061108082611019565b604082019050919050565b600060208201905081810360008301526110a481611068565b9050919050565b7f45524332303a20696e73756666696369656e7420616c6c6f77616e6365000000600082015250565b60006110e1601d83610b5b565b91506110ec826110ab565b602082019050919050565b60006020820190508181036000830152611110816110d4565b9050919050565b7f45524332303a207472616e736665722066726f6d20746865207a65726f20616460008201527f6472657373000000000000000000000000000000000000000000000000000000602082015250565b6000611173602583610b5b565b915061117e82611117565b604082019050919050565b600060208201905081810360008301526111a281611166565b9050919050565b7f45524332303a207472616e7366657220746f20746865207a65726f206164647260008201527f6573730000000000000000000000000000000000000000000000000000000000602082015250565b6000611205602383610b5b565b9150611210826111a9565b604082019050919050565b60006020820190508181036000830152611234816111f8565b9050919050565b7f45524332303a207472616e7366657220616d6f756e742065786365656473206260008201527f616c616e63650000000000000000000000000000000000000000000000000000602082015250565b6000611297602683610b5b565b91506112a28261123b565b604082019050919050565b600060208201905081810360008301526112c68161128a565b905091905056fea26469706673582212201c226ac50d92bae2d96639a1a405b6fe8ed2f389894332e111c6e8eb6631837164736f6c63430008110033",
  "linkReferences": {},
  "deployedLinkReferences": {}
}